:020000040800F2
:1000000010E70020A10100087D1600080116000875
:1000100079160008050700081121000800000000FB
:10002000000000000000000000000000011A0008AD
:10003000851400080000000071170008911B0008DB
:10004000BB010008BB010008BB010008BB010008A0
:10005000BB010008BB010008BB010008BB01000890
:10006000BB010008BB010008BB010008BB01000880
:10007000BB010008BB010008BB010008BB01000870
:10008000BB010008BB010008BB01000815080008FF
:1000900009070008BB010008BB010008BB010008FC
:1000A000BB010008BB010008BB010008BB01000840
:1000B000591C0008BB010008BB010008BB01000877
:1000C000BB010008BB010008BB010008BB01000820
:1000D000BB010008BB010008851E0008BB01000829
:1000E000BB010008BB010008BB010008BB01000800
:1000F000BB010008BB010008BB010008BB010008F0
:10010000BB010008BB010008BB010008BB010008DF
:10011000BB010008BB010008BB010008BB010008CF
:10012000BB0100081D120008BB010008BB0100084C
:10013000BB010008BB010008BB01000895080008CE
:100140003D080008BB010008BB010008BB01000816
:10015000BB010008BB010008BB010008BB0100088F
:10016000BB010008BB010008BB010008BB0100087F
:10017000BB010008BB010008BB010008BB0100086F
:10018000BB010008BB010008DFF810D000F098FAAE
:1001900000F04AF8004800474157000810E70020E7
:1001A0000648804706480047FEE7FEE7FEE7FEE711
:1001B000FEE7FEE7FEE7FEE7FEE7FEE7E51B0008D9
:1001C0008901000810B5431A934209D28318881890
:1001D00003E010F8011D03F8011D521EF9D210BDF5
:1001E00040EA01039B0703D009E008C9121F08C0B9
:1001F000042AFAD203E011F8013B00F8013B521E39
:10020000F9D210BDD2B201E000F8012B491EFBD299
:1002100070470022F6E710B513460A460446194611
:10022000FFF7F0FF204610BD70B5054C054D04E00A
:100230002046016808448047241DAC42F8D170BDB7
:100240006C8E0008788E00082DE9FE4F804681EA0A
:100250000300C00F0C46009021F0004123F0004540
:10026000B8EB0200A94105D24046214690461C4603
:100270000B46024623F00040104347D0270DC7F33A
:100280000A00C3F30A510290401A019040286BDA29
:10029000C3F3130040F4801B0098924620B1002362
:1002A000D2EB030A63EB0B0B01985946C0F14002F5
:1002B000504600F04FF906460D4650465946019A01
:1002C00000F057F910EB08006141002487EA115251
:1002D00084EAE7731A4340D0009A62B3019A012A74
:1002E0004FEA075215DC001B61EB02014FF00042A0
:1002F00002EA0752CDE90042001C41F58011324666
:100300002B4600F08EF903B0BDE8F08F4046214641
:10031000F9E7001B61EB0201001C41F58013001896
:100320005B412018A2F5001747EB030140EAD570A6
:10033000B6196D4111E06D084FEA360645EAC07501
:100340004FEA0752001B61EB0201001C41F58011CE
:1003500049084FEA30000019514132462B4603B09C
:10036000BDE8F04F00F04EB9009801224000002394
:10037000D0EB020263EBE073009821464FEAE07491
:10038000B8EB000061EB0401E9E783F000435BE7B1
:1003900081F0004158E72DE9FE4F81EA030404F0A3
:1003A000004421F0004100944FF0000B23F0004383
:1003B00050EA01045ED052EA03045BD0C3F30A544E
:1003C000C1F30A552C44A4F2F3340194A0FB025467
:1003D000C1F3130141F48011C3F3130343F48013F9
:1003E00001FB024400FB034E840A970A44EA81544D
:1003F00047EA8357A4FB076802958D0A05FB07852A
:100400004FEA932C04FB0C542705029D4FEA065833
:1004100047EA1637B5EB08056EEB070C870E920E10
:1004200047EA811742EA8312A7FB0201B6EB0B01F0
:1004300064EB00042B0D43EA0C335E1844EB1C50B4
:10044000DA465146E7FB0201C5F313044FEA0B33CA
:1004500043EA14534FEA0432019C43EA0603A4F131
:100460000C040294009CCDE900B400F0DAF803B06B
:10047000BDE8F08F00200146F9E70EB5C10F80EA14
:10048000E0700844CA07002140F233438DE80E00B3
:100490000A460B4600F0C5F803B000BD0EB540F2A9
:1004A000334102910021CDE900110A460B4600F0CC
:1004B000B8F803B000BD3EB5CA17CB0F00245040BA
:1004C0005140C0186141DA0740F233430094CDE94E
:1004D00001232246234600F0A4F803B030BD0EB538
:1004E00040F2334202920022CDE90022134600F08E
:1004F00098F803B000BD00F0004230F000400AD090
:10050000C10D01F56071C0F3160042EA0151C20845
:1005100040071143704700200146704701F0004337
:1005200030B421F0004150EA010206D00A0DA2F5D4
:100530006072C1F31301002A02DC30BC0020704756
:10054000440F44EAC104C100E01830BC00EBC250C3
:1005500000F021B8202A04DB203A00FA02F1002042
:1005600070479140C2F1200320FA03F319439040F1
:100570007047202A06DBCB17203A41FA02F043EA03
:10058000E07306E041FA02F3D040C2F1200291404C
:100590000843194670470029A8BF7047401C49000E
:1005A00008BF20F00100704710B4B0FA80FC00FAD8
:1005B0000CF050EA010404BF10BC704749B1CCF103
:1005C000200421FA04F411FA0CF118BF012121438F
:1005D0000843A3EB0C01CB1D4FEA00614FEA10204A
:1005E00042BF002010BC704700EBC35010440029EC
:1005F000A4BF10BC7047401C490008BF20F0010098
:1006000010BC704710B5141E73F1000408DA401CCA
:1006100041F1000192185B411A4301D120F0010021
:1006200010BD2DE9F04D92469B4611B1B1FA81F211
:1006300002E0B0FA80F220329046FFF78BFF0446CA
:100640000F4640EA0A0041EA0B0153465A46084366
:1006500013D0114653EA010019D0C8F140025046A8
:1006600000F040F805460E46504659464246FFF710
:1006700071FF084305D0012004E020463946BDE85B
:10068000F08D0020054346EAE0762C4337430A9874
:100690006305E40AA0EB08000022FD0A44EA47547F
:1006A0000A3002D500200146E9E701051019694129
:1006B000DDE9084500196941BDE8F04DA2E70000F9
:1006C000064C074D06E0E06840F0010394E807009F
:1006D00098471034AC42F6D3FFF75AFD4C8E000811
:1006E0006C8E0008202A04DB203A21FA02F0002157
:1006F000704721FA02F3D040C2F120029140084332
:1007000019467047FFE7FEE780B584B046F2004027
:10071000C4F20000022100F023FA002878D0FFE79D
:1007200040F26400C2F2000046F20041C4F200014F
:100730000022039008461146039B02921A4600F0DD
:10074000D9FB40F26000C2F200000299039A03F064
:1007500033F90398016840F235129142019105D0B6
:10076000FFE70198B0F59B7F3AD048E040F2640083
:10077000C2F20000C17A027B42EA012109B200EE16
:10078000101AB8EEC00A40F2E411C2F2000181ED85
:10079000410A427B837B43EA022212B200EE102A16
:1007A000B8EEC00A81ED420AC27B037C43EA022212
:1007B00012B200EE102AB8EEC00A81ED430A427C64
:1007C000807C40EA022000B200EE100AB8EEC00AB7
:1007D00081ED440A0020C1F81C0181F819010FE0E5
:1007E00040F26400C2F20000C17A40F2E412C2F2A8
:1007F000000282F81811007B82F81A0100E0FFE77E
:1008000046F20040C4F20000022100F057F8FFE772
:1008100004B080BD80B546F20040C4F20000012162
:1008200000F09EF9002808D0FFE746F20040C4F22D
:100830000000012100F042F8FFE780BD80B582B0E2
:1008400046F60000C4F20000022100F089F90028F9
:100850001DD0FFE740F27C00C2F2000046F6000126
:10086000C4F2000100220190084600911146019A4D
:1008700000F040FB40F27800C2F200000121019A32
:1008800003F09AF80221009800F018F8FFE702B090
:1008900080BD000080B546F60000C4F200000121D2
:1008A00000F05EF9002808D0FFE746F60000C4F229
:1008B0000000012100F002F8FFE780BD83B0029044
:1008C000019101980128009033D0FFE70098042897
:1008D00036D0FFE70098082836D0FFE70098202898
:1008E00036D0FFE70098402836D0FFE70098B0F5F3
:1008F000807F3DD0FFE70098B0F5007F3CD0FFE758
:100900000098B0F5806F3BD0FFE70098B0F5006F1E
:100910003AD0FFE70098B0F5004F3CD0FFE70098D1
:10092000B0F5803F1CD0FFE70098B0F5003F1BD02A
:1009300038E0029840F20111C0F20101816032E01A
:1009400002980821C1602EE002981021C1602AE0BF
:1009500002980821016126E002981021016122E03D
:100960000298082141601EE00298102141601AE0BF
:1009700002980421416016E002980421416012E0CF
:100980000298042141600EE00298002181610298E2
:100990000421416007E0029800218161029804214E
:1009A000416000E0FFE703B07047000080B584B00D
:1009B0000390039846F20041C4F2000188420BD133
:1009C000FFE74FF000700121029000F043FF00218B
:1009D000029800F03FFF0AE04FF080600121019093
:1009E00000F038FF0021019800F034FFFFE704B069
:1009F00080BD000082B00190002000900198807AB4
:100A0000012101FA00F0009046F20060C4F20000FB
:100A1000016841F001010160009846F21C61C4F2D6
:100A200000010A6822EA000008600198007B0028A3
:100A300022D1FFE7009846F20C61C4F200010A6877
:100A400022EA000008600198C188428842EA014118
:100A5000807A46F24062C4F2000242F830100198F7
:100A60008188028842EA0141807A46F24462C4F2F7
:100A7000000242F83010FFE70198007B012821D1E5
:100A8000FFE7009846F20C61C4F200010A681043C7
:100A9000086001980188428842EA0141807A46F262
:100AA0004062C4F2000242F8301001988188C28886
:100AB00042EA0141807A46F24462C4F2000242F8FE
:100AC0003010FFE70198C07A00280AD1FFE70098AC
:100AD00046F20461C4F200010A6822EA00000860DC
:100AE00008E0009846F20461C4F200010A6810436D
:100AF0000860FFE70198008900280AD1FFE7009805
:100B000046F21461C4F200010A6822EA000008609B
:100B1000FFE701980089012809D1FFE7009846F214
:100B20001461C4F200010A6810430860FFE70198ED
:100B3000407B012809D1FFE7009846F21C61C4F20E
:100B400000010A6810430860FFE746F20060C4F243
:100B50000000016821F00101016002B0704700004F
:100B600080B584B00390029100208DF807000398AF
:100B700040690299084200F0B980FFE70298012815
:100B800000903BD0FFE70098022842D0FFE7009892
:100B9000042846D0FFE7009808284AD0FFE70098CD
:100BA00010284ED0FFE70098202852D0FFE7009889
:100BB000402856D0FFE70098B0F5807F69D0FFE766
:100BC0000098B0F5007F6CD0FFE70098B0F5806F1B
:100BD0006FD0FFE70098B0F5006F72D0FFE7009884
:100BE000B0F5004F75D0FFE70098B0F5803F40D0DA
:100BF000FFE70098B0F5003F43D072E003988068AB
:100C000040F20111C0F2010100F0E2FA8DF8070094
:100C10006BE00398C068032100F0DAFA8DF8070052
:100C200063E00398C068082100F0D2FA8DF807004D
:100C30005BE00398C068102100F0CAFA8DF8070045
:100C400053E003980069032100F0C2FA8DF8070011
:100C50004BE003980069082100F0BAFA8DF807000C
:100C600043E003980069102100F0B2FA8DF8070004
:100C70003BE003984068082100F0AAFA8DF80700CD
:100C800033E003984068102100F0A2FA8DF80700C5
:100C90002BE003988069012100F09AFA8DF8070093
:100CA00023E003988069022100F092FA8DF8070092
:100CB0001BE003988069042100F08AFA8DF8070090
:100CC00013E003988069702100F082FA8DF8070024
:100CD0000BE003984068042100F07AFA8DF80700D1
:100CE00003E000208DF80700FFE703E000208DF807
:100CF0000700FFE79DF8070004B080BD83B01346EE
:100D0000029001918DF803209DF80300002806D081
:100D1000FFE7019802994A691043486106E001988B
:100D200002994A6922EA00004861FFE703B0704770
:100D300086B00590049100208DF80F000290059870
:100D4000016821F0020101600598016841F001018C
:100D50000160FFE7059840680021C0070028019165
:100D600008D1FFE702984FF6FF71401A18BF012023
:100D70000190FFE70198C007002804D0FFE7029820
:100D800001300290E6E705984068C007002804D1CA
:100D9000FFE700208DF80F00A7E004988079012874
:100DA00006D1FFE70598016841F08001016005E088
:100DB0000598016821F080010160FFE70498C0797F
:100DC000012806D1FFE70598016841F04001016064
:100DD00005E00598016821F040010160FFE70498F3
:100DE000007A012806D1FFE70598016841F020014B
:100DF000016005E00598016821F020010160FFE72E
:100E00000498407A012806D1FFE70598016841F06F
:100E10001001016005E00598016821F010010160F2
:100E2000FFE70498807A012806D1FFE7059801685A
:100E300041F00801016005E00598016821F0080112
:100E40000160FFE70498C07A012806D1FFE7059802
:100E5000016841F00401016005E00598016821F096
:100E600004010160FFE704988178C278037990F863
:100E700005C0890741EA026141EA034141EA0C5198
:100E80000088013808430599C8610598016821F078
:100E90000101016000200290FFE7059840680021F1
:100EA000C0070028009108D0FFE702984FF6FF71B5
:100EB000401A18BF01200090FFE70098C0070028E3
:100EC00004D0FFE7029801300290E6E705984068F9
:100ED000C007002804D0FFE700208DF80F0003E0D2
:100EE00001208DF80F00FFE7FFE79DF80F0006B027
:100EF0007047000083B00B4602908DF807100092F7
:100F000002989DF8071000EB0110D0F8B00100F036
:100F10000400009908720098007A00280BD1FFE7BE
:100F200002989DF8071000EB0110D0F8B001400DB9
:100F3000009908600AE002989DF8071000EB011084
:100F4000D0F8B001C00800994860FFE702989DF80A
:100F5000071000EB0110D0F8B00100F0020000997A
:100F6000487202989DF8071000EB0110D0F8B40108
:100F700000F00F000099887202989DF8071000EBAE
:100F80000110D0F8B401000A0099C87402989DF8C5
:100F9000071000EB0110D0F8B8010099C872029850
:100FA0009DF8071000EB0110D0F8B801000A009975
:100FB000087302989DF8071000EB0110D0F8B801F3
:100FC000000C0099487302989DF8071000EB01107F
:100FD000D0F8B801000E0099887302989DF80710A8
:100FE00000EB0110D0F8BC010099C87302989DF87D
:100FF000071000EB0110D0F8BC01000A009908743A
:1010000002989DF8071000EB0110D0F8BC01000C0D
:101010000099487402989DF8071000EB0110D0F871
:10102000BC01000E009988749DF80700002806D1C5
:10103000FFE70298C16841F02001C16005E0029815
:10104000016941F020010161FFE703B07047000032
:1010500081B000900098002181710098C1710098C2
:10106000017200984172009881720098C1720098D4
:1010700081700098C17000980321017100980221CD
:10108000417100980121018001B0704783B0029046
:10109000019100208DF8030002988068400100282B
:1010A00004D5FFE700208DF8030019E0029880685E
:1010B0000001002804D5FFE701208DF803000EE0B1
:1010C00002988068C000002804D5FFE702208DF850
:1010D000030003E004208DF80300FFE7FFE7FFE7CC
:1010E0009DF8030004286ED0FFE702989DF80310D6
:1010F00000EB0110D0F8801101F00101C0F880115F
:101100000198007A002810D1FFE701980168407A21
:1011100040EA415002999DF8032001EB0211D1F8F9
:1011200080211043C1F8800111E001984168027AE2
:1011300042EAC101407A084302999DF8032001EB7D
:101140000211D1F880211043C1F88001FFE7019816
:10115000817A01F00F01817202989DF8031000EB73
:101160000110D0F8841121F00F01C0F8841101980A
:10117000807A02999DF8032001EB0211D1F88421B5
:101180001043C1F884010198D0F80B0002999DF832
:10119000032001EB0211C1F888010198D0F80F007B
:1011A00002999DF8032001EB0211C1F88C0102980D
:1011B0009DF8031000EB0110D0F8801141F00101FF
:1011C000C0F88011FFE79DF8030003B070470000EE
:1011D00083B00290019100208DF8030002980199DC
:1011E000084204D0FFE701208DF8030003E000204F
:1011F0008DF80300FFE79DF8030003B0704700007F
:1012000080B540F29800C2F200000021C0E9001150
:101210003120532101F0A8FC80BD000080B582B0D0
:1012200046F22840C4F2020048F60001C1F2000173
:1012300000F0BCF800281FD0FFE740F26E10C2F2A9
:1012400000000021018040F21430C2F2000080F85A
:10125000C51104F00DFA46F22840C4F2020048F627
:101260000001C1F200010190009100F007F801981F
:10127000009900F035F8FFE702B080BD83B002901E
:101280000191029846F20F41C4F20201884206D849
:10129000FFE746F20000C4F20200009005E046F2CB
:1012A0000040C4F202000090FFE79DF807008006AE
:1012B000002809D5FFE7019840F67D71C0F67D71E1
:1012C00008400099C86008E0019840F67D71C0F6BA
:1012D0007D71084000998860FFE703B07047000007
:1012E00083B002900191029846F20F41C4F20201CC
:1012F000884206D8FFE746F20000C4F202000090E0
:1013000005E046F20040C4F202000090FFE79DF8BD
:1013100007008006002809D5FFE7019840F67D7197
:10132000C0F67D7108400099C86008E0019840F659
:101330007D71C0F67D71084000998860FFE703B0B9
:101340007047000082B00A4601908DF803109DF8A6
:101350000300002806D0FFE70198016841F0010171
:10136000016005E00198016821F001010160FFE7DB
:1013700002B0704781B000900098406880B201B020
:101380007047000082B00190002000900198006832
:101390000003002803D5FFE70120009002E00020B1
:1013A0000090FFE7009802B07047000086B00590FB
:1013B000049100208DF80F0001900090059846F2EE
:1013C0000F41C4F20201884206D8FFE746F200004E
:1013D000C4F20200029005E046F20040C4F20200AE
:1013E0000290FFE7049840F63C71C0F63C71084259
:1013F0000BD0FFE704981E2101EAD0200190059848
:10140000006801990840009005E00598406900F0E7
:1014100080000090FFE79DF813008006002804D5A7
:10142000FFE702984068019003E00298006801908D
:10143000FFE7019840F67D71C0F67D71084001908C
:1014400001980499084208D0FFE70098002804D0CA
:10145000FFE701208DF80F0003E000208DF80F005A
:10146000FFE79DF80F0006B07047000082B00A4603
:101470000190ADF80210BDF802000199486002B079
:10148000704700007047000085B004900391002071
:101490000290019000900290FFE702980F286ED80A
:1014A000FFE70298012101FA00F00190039800681B
:1014B0000199084000900098019988425AD1FFE7AD
:1014C00002984000032101FA00F004990A6822EA18
:1014D0000000086003980079029949008840049947
:1014E0000A681043086003980079012805D0FFE7D7
:1014F00003980079022828D1FFE7029840000321D1
:1015000001FA00F004998A6822EA000088600398D2
:10151000407902994900884004998A68104388609C
:10152000BDF80800012101FA00F004994A6822EA96
:101530000000486003988079BDF80810884080B2A8
:1015400004994A6810434860FFE7BDF8080040006E
:10155000032101FA00F00499CA6822EA0000C86079
:101560000398C0790299490088400499CA681043D9
:10157000C860FFE7FFE70298013002908DE705B0F1
:101580007047000080B584B013468C460390ADF8D8
:101590000A108DF809200020019000909DF80900A4
:1015A000BDF80A1001F00701890088400190BDF8DC
:1015B0000A0000F0070189000F2202FA01F1039AE4
:1015C0006FF0030E0EEA50001044026A22EA010195
:1015D00001620398BDF80A1047F6FC7202EA510155
:1015E0000844006A01990843009000980399BDF8E7
:1015F0000AE002EA5E021144086204B080BD000005
:10160000FFE7FEE743F20000C4F200004CF6CC41D5
:101610000160704743F20000C4F200004AF6AA21BC
:101620000160704781B001468DF803009DF803000A
:1016300043F20402C4F20002106001B070470000DF
:1016400081B00146ADF80200BDF8020043F2080285
:10165000C4F20002106001B07047000081B0014682
:10166000ADF80200BDF8020043F20002C4F200022D
:10167000106001B070470000FFE7FEE77047000010
:1016800082B0019000208DF803008DF802000F2039
:101690008DF801000198C078002847D0FFE74EF68A
:1016A0000C50CEF200000068C043C0F302208DF859
:1016B00003009DF80300C0F104008DF802009DF8BE
:1016C00001009DF80310C8408DF801000198407892
:1016D0009DF8021088408DF80300019880789DF8ED
:1016E000011008409DF8031008438DF803009DF891
:1016F000030000018DF803009DF8030001990978AB
:101700004EF20042CEF2000288540198007800F0B8
:101710001F01012202FA01F14EF20012CEF2000284
:1017200042EAD00020F00300016010E00198007848
:1017300000F01F01012202FA01F14EF28012CEF2F6
:10174000000242EAD00020F003000160FFE702B08F
:101750007047000081B0009000980021C0F2FA515B
:1017600008434EF60C51CEF20001086001B07047FC
:10177000EFF30980BFF36F8F154B1A681EF0100F3F
:1017800008BF20ED108A20E9F04F10604DF8043DAD
:101790004FF0100080F31188BFF34F8FBFF36F8FAE
:1017A00005F03AFD4FF0000080F311885DF8043B2E
:1017B00019680868B0E8F04F1EF0100F08BFB0ECD1
:1017C000108A80F30988BFF36F8F704700BF00BF96
:1017D0002407002082B00A4601908DF803109DF87E
:1017E0000300002809D0FFE7019843F63001C4F256
:1017F00002010A681043086009E0019843F63001CD
:10180000C4F202010A6822EA00000860FFE702B0A1
:101810007047000082B00A4601908DF803109DF8D1
:101820000300002809D0FFE7019843F64001C4F205
:1018300002010A681043086009E0019843F640017C
:10184000C4F202010A6822EA00000860FFE702B061
:101850007047000082B00A4601908DF803109DF891
:101860000300002809D0FFE7019843F62001C4F2E5
:1018700002010A681043086009E0019843F620015C
:10188000C4F202010A6822EA00000860FFE702B021
:101890007047000088B007900020069005900490E3
:1018A000022103910290019143F60800C4F2020064
:1018B000006800F00C00069006980028009008D000
:1018C000FFE7009804280BD0FFE7009808280ED007
:1018D00051E0079842F20041C0F2F401016051E08A
:1018E000079841F20021C0F27A0101604AE043F614
:1018F0000400C4F202000168C1F380510291006843
:1019000000F03F0001900298002811D0FFE70198F5
:1019100041F20021C0F27A01B1FBF0F043F604017C
:10192000C4F202010968C1F388114843049010E031
:10193000019842F20041C0F2F401B1FBF0F043F62D
:101940000401C4F202010968C1F3881148430490FC
:10195000FFE743F60400C4F20200006800F44030E0
:10196000022101EBD030039004980399B0FBF1F011
:101970000799086006E0079842F20041C0F2F401BE
:101980000160FFE743F60800C4F20200016801F0BD
:10199000F0010691069909090691069948F6046234
:1019A000C0F60002515C059107990B68DDF814C080
:1019B00023FA0CF34B60016801F4E051069106999B
:1019C000890A06910699515C059107994B68DDF8E3
:1019D00014C023FA0CF38B60006800F4604006909A
:1019E0000698400B06900698105C05900798416891
:1019F000059AD140C16008B07047000000000000A7
:101A0000074B19680868B0E8F04F80F30988BFF306
:101A10006F8F4FF0000080F31188704700BF00BF48
:101A20002407002083B000200290019043F60000BC
:101A3000C4F20200016841F480310160FFE743F61F
:101A40000000C4F20200006800F400300190029827
:101A500001300290FFE7019800210028009107D192
:101A6000FFE70298B0F5A04018BF01200090FFE703
:101A70000098C0070028E2D1FFE743F60000C4F257
:101A8000020000688003002803D5FFE701200190D1
:101A900002E000200190FFE7019801285AD1FFE7FA
:101AA00043F64000C4F20200016841F08051016039
:101AB00047F20000C4F20000016841F440410160B7
:101AC00043F60800C4F2020001680160016841F4B5
:101AD00000410160016841F4A051016043F6040037
:101AE000C4F2020045F20841C0F24071016043F6C1
:101AF0000000C4F20200016841F080710160FFE75C
:101B000043F60000C4F2020000688001002801D4FE
:101B1000FFE7F5E743F60040C4F2020040F205712A
:101B2000016043F60800C4F20200016821F00301DD
:101B30000160016841F002010160FFE743F608001F
:101B4000C4F20200006800F00C00082801D0FFE792
:101B5000F4E700E0FFE703B07047000081B00090B9
:101B60000098042809D1FFE74EF21000CEF20000E1
:101B7000016841F00401016008E04EF21000CEF26D
:101B80000000016821F004010160FFE701B0704727
:101B900080B506F0BBF9012803D0FFE705F060FC33
:101BA000FFE740F6DC10C2F200000168013101607D
:101BB00040F26C10C2F2000001780131CAB201702B
:101BC000042A0ED1FFE740F6E010C2F200000168DF
:101BD0000131016040F26C10C2F20000002101707E
:101BE000FFE780BD80B54EF68850CEF20000016858
:101BF00041F47001016043F60000C4F20200016884
:101C000041F00101016043F60801C4F20201002223
:101C10000A6001684FF6FF73CFF6F6631940016062
:101C200043F60401C4F2020143F21003C2F200437E
:101C30000B60016821F48021016043F60C00C4F2BE
:101C400002000260FFF7EEFE4EF60850CEF20000F2
:101C50004FF00061016080BD80B54FF080400121F0
:101C600000F03AF801280CD1FFE740F29800C2F2E8
:101C70000000D0E90012013142F10002C0E9001277
:101C8000FFE74FF08040012100F002F880BD000026
:101C900082B00A460190ADF80210BDF80200C043C0
:101CA0000199088202B0704782B00A4601908DF80F
:101CB00003109DF80300002806D0FFE70198018873
:101CC00041F00101018005E00198018821F0010146
:101CD0000180FFE702B0704783B00A460290ADF87A
:101CE000061000208DF80500ADF80200ADF80000E8
:101CF0000298008ABDF806100840ADF8020002986C
:101D00008089BDF806100840ADF80000BDF802005B
:101D1000002809D0FFE7BDF80000002804D0FFE745
:101D200001208DF8050003E000208DF80500FFE795
:101D30009DF8050003B0704782B013468C460190B1
:101D4000ADF802108DF801209DF80100002807D0A1
:101D5000FFE7BDF8020001998A891043888107E0F6
:101D6000BDF8020001998A8922EA00008881FFE714
:101D700002B0704783B0029001910020ADF80200DC
:101D800002980088ADF8020002980021C4F2010117
:101D9000884225D0FFE7029840F20041C4F20101D9
:101DA00088421DD0FFE70298B0F1804F18D0FFE7BE
:101DB000029840F20041C4F20001884210D0FFE7CF
:101DC000029840F60001C4F20001884208D0FFE703
:101DD000029840F60041C4F2000188420ED1FFE7AC
:101DE000BDF8020020F07000ADF8020001984088B4
:101DF000BDF802100843ADF80200FFE7029841F277
:101E00000001C4F20001884216D0FFE7029841F2B7
:101E10000041C4F2000188420ED0FFE7BDF8020085
:101E200020F44070ADF8020001980089BDF802105E
:101E30000843ADF80200FFE7BDF8020002990880F0
:101E4000019840680299C862019800880299088543
:101E500002980021C4F20101884208D0FFE70298ED
:101E600040F20041C4F20101884205D1FFE7019828
:101E7000807A02990886FFE702980121818203B0E7
:101E80007047000080B58AB044F20040C4F2000000
:101E900040F2255100F0D6F8002807D0FFE744F2C1
:101EA0000040C4F2000000F02BF9C8E044F200400A
:101EB000C4F2000040F2244100F0C4F8002800F011
:101EC000BD80FFE744F20040C4F2000000F018F9C2
:101ED00046F28801C4F2020108900846FFF752FA60
:101EE000002854D1FFE746F28800C4F20200002126
:101EF0000790FFF727FA0798FFF73CFAC0F1240094
:101F000040F2C411C2F2000108802420079A069012
:101F10001046069B05911946FFF7A8FA0798016835
:101F200041F40021016040F60041C2F20001FFF7D8
:101F3000A5F901210798FFF705FA059801881229EC
:101F400024D1FFE74DF2F410C2F20000007800281F
:101F50000BD0FFE740F22010C2F2000040F2AC01CB
:101F6000C2F2000100F0D6FBFFE740F29400C2F29B
:101F700000000068694609AA0A6040F22011C2F216
:101F800000010322002305F0F5FEFFE755E046F2CD
:101F90008800C4F2020000210490FFF7D3F90498EE
:101FA000FFF7E8F9C0F1240040F2C411C2F20001C9
:101FB00008802420049A03901046039B029119463E
:101FC000FFF754FA0498016821F40021016040F6FB
:101FD0000041C2F20001FFF751F901210498FFF717
:101FE000B1F902980188122926D1FFE74DF2F410C9
:101FF000C2F20000007800280CD0FFE740F2201069
:10200000C2F20000243040F2AC01C2F2000100F044
:1020100081FBFFE740F29400C2F2000000686946CD
:1020200009AA0A6040F22011C2F200012431032201
:10203000002305F09FFEFFE7FFE7FFE7FFE70AB099
:1020400080BD000086B00A460590ADF81210002051
:102050000390029001908DF80300BDF8120040F645
:102060006A11884201D1FFE7FFE79DF8120040099D
:102070000190BDF8120000F01F00029002980121AB
:1020800001FA00F002900198012806D1FFE70598B7
:10209000808902990840029010E00198022806D138
:1020A000FFE70598008A02990840029005E005982C
:1020B000808A029908400290FFE7FFE79DF813002D
:1020C00003900398012101FA00F00390059800881D
:1020D0000399084003900298002808D0FFE703986E
:1020E000002804D0FFE701208DF8030003E0002062
:1020F0008DF80300FFE79DF8030006B0704700006D
:1021000081B00090009880886FF35F2001B0704725
:10211000FFE7FEE780B503F003FB80BD80B503F069
:1021200007FB80BD80B503F0EBFA80BD80B588B0B9
:10213000079000208DF81B00059004F0CBFC40F2C6
:10214000A800C2F20000694648600120086042F21F
:102150003D61C0F6000148F61A62C0F60002642331
:102160000490084611461A46059B05F0AFFD9DF800
:102170001B104A1C8DF81B2040F21202C2F2000212
:10218000505440F29000C2F2000069464860049842
:10219000086042F21520C0F6000048F61E61C0F645
:1021A00000014FF47A7303921A46059B05F08EFDE9
:1021B0009DF81B104A1C8DF81B20039A505400F008
:1021C00049F840F26810C2F20000006804F016FE00
:1021D00004F0A8FC08B080BD80B588B004A8FFF763
:1021E00059FB059844F6D351C1F26201A0FB0101ED
:1021F00089090391039949090391039902900846BB
:1022000000F0C2FB6FF0040101900846FFF7A6FC46
:1022100008B080BD80B584B0039040F2E410C2F2F3
:102220000000029003F00CF90120029981F82401CA
:10223000FFE740F2E410C2F20000019002F0D8FE85
:102240000198D0F81C110131C0F81C11142004F0C1
:102250009FFDEEE780B582B0EFF3108072B601907B
:1022600046F20040C4F2000000F0F6F846F6000026
:10227000C4F2000000F0F0F80420462100F02EFA2D
:1022800040F2A000C2F200000121017062B602B06B
:1022900080BD000082B040F6DC10C2F20000006891
:1022A000019001984EF21401CEF200010A684EF23C
:1022B0001803CEF200031B68D21A4FF47A735A4304
:1022C0000968B2FBF1F100FB031080080090009850
:1022D00002B0704782B08DED010ACDED000A9DED90
:1022E000010AB5EE400AF1EE10FA0EDDFFE79DEDB2
:1022F000010A9DED001AB4EE410AF1EE10FA03DA7C
:10230000FFE700200190FFE70FE09DED010A9DED42
:10231000001AB1EE411AB4EE410AF1EE10FA03DDF3
:10232000FFE700200190FFE7FFE79DED010A02B003
:102330007047000080B58AB009900891079200208C
:102340008DF810008DF8110008208DF81200079804
:102350000290099890ED000ABDEEC00A10EE100A36
:10236000000A8DF81300099890ED000ABDEEC00A2E
:1023700010EE100A8DF81400099890ED010ABDEED8
:10238000C00A10EE100A000A8DF81500099890EDA9
:10239000010ABDEEC00A10EE100A8DF81600099869
:1023A00090ED020ABDEEC00A10EE100A000A8DF888
:1023B0001700099890ED020ABDEEC00A10EE100A4F
:1023C0008DF81800099890ED030ABDEEC00A10EED2
:1023D000100A000A8DF81900099890ED030ABDEE65
:1023E000C00A10EE100A8DF81A00089802A9FEF72C
:1023F0004DFE8DF807006E2000F08CF80AB080BD0D
:1024000080B58AB009900891079200208DF81000DD
:102410008DF8110008208DF8120007980290099895
:1024200001684068CDF81700CDF81310089802A98C
:10243000FEF72CFE8DF807006E2000F06BF80AB056
:1024400080BD000081B08DED000A9DED000A20EEF8
:10245000000A01B07047000080B58AB00990099861
:1024600000F0BCFA0998FEF7A1FA06A80190FEF761
:10247000EFFD00208DF81E0001218DF81F108DF852
:1024800020108DF821008DF822008DF823108DF892
:102490001A008DF81B0008208DF81C0003208DF811
:1024A0001D00ADF8180009980199FEF741FC099943
:1024B00046F20042C4F20002914204D1FFE700203C
:1024C0008DF8120003E00E208DF81200FFE70020C7
:1024D0008DF8130001218DF81410ADF80800ADF847
:1024E0000A00ADF80C00ADF80E00ADF810008DF844
:1024F000151002A80091FEF77DFA09980221009AB2
:10250000FEF7FCFB09980099009AFEF7F7FB0AB06A
:1025100080BD000080B588B00790FFF7BBFE069035
:1025200000200590049003900290019000904EF2DC
:102530001400CEF20000006800900798A8214843DC
:10254000C00804904EF21800CEF20000006803901C
:10255000FFE74EF21800CEF20000006802900298E9
:10256000039988421ED0FFE702980399884207D258
:10257000FFE703980299401A01990844019008E086
:1025800000980299401A039908440199084401905F
:10259000FFE70298039001980499884201D3FFE76E
:1025A00003E0FFE700F096F8D3E7FFF773FE069924
:1025B000401A059008B080BD85B08DED040A4FF03B
:1025C0007F5000909DED040AB6EE001A20EE010A3D
:1025D0008DED020A0498019001980390039845F646
:1025E0008621C5F63771A1EB600003900398019036
:1025F0009DED010A9DED021A21EE001A21EE001A4E
:10260000B7EE082A32EE411A20EE010A8DED010ADA
:102610009DED010A9DED021A21EE001A21EE001A2D
:1026200032EE411A20EE010A8DED010A9DED040AF9
:102630009DED011A20EE010A05B0704780B588B003
:10264000079040F2D810C2F20000059001F098FB0C
:102650000120059904900846049901F0B7FB002079
:10266000049903900846039A04F01AFF40F2A4016B
:10267000C2F20001086002208DF81B0003988DF85B
:102680001A00FFE700F026F840F2A400C2F20000B2
:1026900000680DF11B0100220292029B04F03AFF38
:1026A0009DF81B1040F2D812C2F2000201901046B1
:1026B00001F0A4FB642004F06BFB04F03DFE00EE8F
:1026C000100AB8EE400A40F21030C2F2000080ED6D
:1026D000000AD7E780B5FEF79DFF80BD80B584B0C6
:1026E0000A4603468DF80F00ADF80C1045F2555020
:1026F00002920193FEF7B2FF9DF80F00FEF792FFE2
:10270000BDF80C00FEF79CFFFEF784FFFEF77AFF92
:1027100004B080BD80B584B0039002910398002876
:1027200004D0FFE70298002801D1FFE72AE10298D0
:10273000C18941850298018A8185039800780399AF
:10274000497840EA01206FF3DF2040F6BC11C2F265
:1027500000010880B1F90000A0F5806000EE100AC9
:10276000B8EEC00AB1EE041AF0EE410A01918DED07
:10277000001AFFF7AFFDBDEEC00A10EE100A029975
:10278000488003984078C0080399897840EA41104E
:102790006FF3DF2001994880B1F90200A0F5806055
:1027A00000EE100AB8EEC00ADDED000AFFF792FD58
:1027B000BDEEC00A10EE100A029988800398807856
:1027C00080090399C97840EA81000399097940EAB0
:1027D00081206FF3DF2001998880B1F90400A0F512
:1027E000806000EE100AB8EEC00ADDED000AFFF7C7
:1027F00071FDBDEEC00A10EE100A0299C880039860
:10280000007940080399497940EAC1106FF3DF204D
:102810000199C880B1F90600A0F5806000EE100AA9
:10282000B8EEC00ADDED000AFFF754FDBDEEC00AA8
:1028300010EE100A029908810398407980090299E4
:10284000488103984079C0F3011002998881039868
:1028500080790399C97940EA01200299C8810398D7
:10286000007A0399497A40EA01204042029908829D
:102870000398007B029948820298817C81760398B4
:10288000407B029988820298017DC1760398807B03
:102890000399C97B40EA01200299C88240F2AC004A
:1028A000C2F20000C18A828BC90861F3C30282832D
:1028B000C18A828B890861F382028283C18A828BFA
:1028C000490861F341028283C18A828B61F300026D
:1028D0008283C18A01F40041828B6FF3DF3211449D
:1028E0008183C18A01F48041828B22F480421144A9
:1028F0008183C18A01F40051828B22F40052114479
:102900008183C18A01F48051828B22F48052114468
:102910008183C18A01F40061828B22F40062114438
:102920008183C18A01F48061828B22F48062114428
:102930008183C18A01F40071828B22F400721144F8
:102940008183C18A01F48071828B22F480721144E8
:102950008183C18A828BC90961F3C7128283C18ACC
:10296000828B890961F386128283C18A828B49092D
:1029700061F345128283C18A828B090961F30412D3
:102980008283FFE704B080BD80B582B000900098DC
:102990000138B0F1807F03D3FFE70120019019E0F7
:1029A000009801384EF21401CEF2000108604FF099
:1029B000FF300F2100F0B6F84EF21800CEF2000002
:1029C000002101604EF21000CEF2000007220260EA
:1029D0000191FFE7019802B080BD000080B590B082
:1029E0000F900F9846F20041C4F2000188424AD18C
:1029F000FFE7022001210B900A91FEF7EBFE4FF05A
:102A000000700A99FEF706FF40F20040C4F202008F
:102A10000821092209900892FEF7B4FD0998089947
:102A2000089AFEF7AFFD4FF440700D900B988DF8AB
:102A3000380000218DF83A1003218DF839100DAAC5
:102A4000099807911146FEF71FFD14208DF83000FC
:102A500007988DF831000A998DF832108DF83310EF
:102A60000CAA10460692FEF70BFE13208DF83000DC
:102A70000A988DF831008DF832008DF833000698F1
:102A8000FEF7FEFD4CE00F9846F60001C4F200018F
:102A9000884244D1FFE70220012105900491FEF70E
:102AA00099FE4FF080600499FEF7B4FE40F20040BA
:102AB000C4F202000D21092203900292FEF762FD8A
:102AC0000C210398029AFEF75DFD4FF440500D90E3
:102AD00005988DF838000DA90398FEF7D5FC402025
:102AE0008DF8300000208DF831008DF83200049907
:102AF0008DF833100CAA019010460092FEF7C0FD2D
:102B00003F208DF8300001988DF831008DF83200AB
:102B100004998DF833100098FEF7B2FDFFE7FFE748
:102B200010B080BD82B002468DF8070000919DF97B
:102B3000070000280AD4FFE7009800019DF907105C
:102B40004EF20042CEF2000288540BE000980001E1
:102B50009DF8071001F00F014EF61452CEF200025C
:102B60008854FFE702B0704780B58AB00A46034632
:102B7000ADF82600ADF824100120049004990392CA
:102B80000293FEF747FEBDF826000790BDF824002B
:102B9000ADF818000020ADF81A00ADF820004FF095
:102BA000804106AA0190084600911146FFF7E2F81D
:102BB00000980499049AFFF7BFF800980499FFF76A
:102BC00073F81C208DF8140004988DF815000199F5
:102BD0008DF816108DF8170005A8FEF751FD0AB004
:102BE00080BD000081B000900098002101600022AB
:102BF000C3F6F072C260816001B0704782B001908C
:102C000000910198082101710099016002B070479C
:102C100082B0019000910198062101710099016034
:102C200002B0704782B001900091019805210171B6
:102C30000099016002B0704780B598B01590159862
:102C4000149000F009F9002804D0FFE70020179045
:102C50001690FCE0149801790A460929139200F2B3
:102C6000F5801399DFE801F0051D354D667F98B0BA
:102C7000C9E1149890ED020B016808788DED100BF6
:102C8000FDF7FBFB41EC100B9DED101B51EC110B04
:102C900053EC102BFDF77FFB41EC100B8DED160B69
:102CA000D5E0149890ED020B016808888DED0E0BAD
:102CB000FDF7E3FB41EC100B9DED0E1B51EC110BEE
:102CC00053EC102BFDF767FB41EC100B8DED160B51
:102CD000BDE0149890ED020B016808688DED0C0BB7
:102CE000FDF7DCFB41EC100B9DED0C1B51EC110BC7
:102CF00053EC102BFDF74FFB41EC100B8DED160B39
:102D0000A5E0149890ED020B0168086849688DED04
:102D10000A0BFDF7E4FB41EC100B9DED0A1B51EC97
:102D2000110B53EC102BFDF736FB41EC100B8DED26
:102D3000160B8CE0149890ED020B016891F90000DD
:102D40008DED080BFDF799FB41EC100B9DED081B79
:102D500051EC110B53EC102BFDF71DFB41EC100B4C
:102D60008DED160B73E0149890ED020B0168B1F92C
:102D700000008DED060BFDF780FB41EC100B9DED87
:102D8000061B51EC110B53EC102BFDF704FB41EC2F
:102D9000100B8DED160B5AE0149890ED020B0168A4
:102DA00008688DED040BFDF768FB41EC100B9DED01
:102DB000041B51EC110B53EC102BFDF7ECFA41EC1A
:102DC000100B8DED160B42E0149890ED020B01688C
:102DD000086849688DED020BFDF76DFB41EC100BA7
:102DE0009DED021B51EC110B53EC102BFDF7D3FAA8
:102DF00041EC100B8DED160B29E0149890ED020BB1
:102E0000016808688DED000BFDF775FB41EC100BB8
:102E10009DED001B51EC110B53EC102BFDF7BBFA91
:102E200041EC100B8DED160B11E0149890ED020B98
:102E3000016891ED001B51EC100B53EC112BFDF7C9
:102E4000AAFA41EC100B8DED160B00E0FEDE9DEDB5
:102E5000160B18B080BD000081B00090009800688B
:102E6000B0FA80F0400901B07047000080B5A4B00E
:102E7000B0EE434AB0EE625AB0EE426AB0EE617A0A
:102E8000F0EE413AF0EE604AF0EE405A8DED191A3C
:102E9000CDED180A8DED170A8DED163ACDED152AF8
:102EA0008DED142ACDED131A1290129817998161A5
:102EB0001899C16119990162139941661499416782
:102EC0001599C0F884101699C0F8941090ED060A70
:102ED000B5EE400AF1EE10FA119020D1FFE71198FB
:102EE00090ED070AB5EE400AF1EE10FA17D1FFE7B0
:102EF000119890ED080AB5EE400AF1EE10FA0ED1E5
:102F0000FFE700201199C866C867C865C1F88C0042
:102F10000867C1F880000866C1F89000DCE21198EB
:102F200090ED060A9FEDD51AB4EE410AF1EE10FAC3
:102F300001DAFFE718E0119890ED060A9FEDD01A2C
:102F4000B4EE410AF1EE10FA05DDFFE79FEDCC0A81
:102F50008DED100A05E0119890ED060A8DED100A2E
:102F6000FFE79DED100AFFE7119890ED070A9FED2E
:102F7000C31AB4EE410AF1EE10FA01DAFFE718E0E5
:102F8000119890ED070A9FEDBE1AB4EE410AF1EEDA
:102F900010FA05DDFFE79FEDBA0A8DED0F0A05E097
:102FA000119890ED070A8DED0F0AFFE79DED0F0ACE
:102FB000FFE7119890ED080A9FEDB21AB4EE410AAE
:102FC000F1EE10FA01DAFFE718E0119890ED080A27
:102FD0009FEDAD1AB4EE410AF1EE10FA05DDFFE700
:102FE0009FEDA90A8DED0E0A05E0119890ED080AF3
:102FF0008DED0E0AFFE79DED0E0AFFE7119890EDAB
:10300000070AB5EE400AF1EE10FA09D1FFE7119870
:1030100090ED060AB5EE400AF1EE10FA0FD0FFE788
:1030200011988169C2691B921A919DED1B0ADDED11
:103030001A0A05F037FB119880ED0A0AFFE711988C
:1030400090ED0A0A05F02CFD119880ED0C0A90ED28
:103050000A0A05F07DFC119880ED0D0A90ED070A33
:10306000FFF7F0F9119890ED061A8DED0D0AB0EE0C
:10307000410AFFF7E7F99DED0D1A31EE000AFFF75F
:103080009BFA119880ED0B0A90ED050AFFF7DAF92B
:10309000119890ED081A8DED0C0AB0EE410AFFF779
:1030A000D1F99DED0C1A21EE000AB0EE002A80EE57
:1030B000020A119890ED0B2A8DED0B0AB0EE420A30
:1030C000FFF7C0F99DED0B1A31EE000A119890ED53
:1030D0000C1A90ED012A90ED023A90ED084A90ED1D
:1030E0000B5A23EE011A90ED0D3A22EE032A31EE2F
:1030F000021A21EE041A21EE051A30EE010AFFF73A
:103100005BFA119880ED1C0A90ED010A90ED021A0D
:1031100090ED082A90ED0B3A33EE033A90ED0D4A0C
:1031200023EE044A20EE020A34EE000A90ED0C4A27
:1031300023EE043A21EE021A33EE011A8DED1D0A38
:103140008DED1C1A9DED1D0ADDED1C0A05F0AAFA95
:103150009FED4E1A31EE400A119880ED1A0A90ED5B
:103160001A0AB5EE400AF1EE10FA0ADAFFE71198F2
:1031700090ED1A0A9FED461A30EE010A80ED1A0A08
:10318000FFE7119890ED1A0A9FED421A20EE010A0E
:1031900080ED1A0A90ED050AFFF754F9119890EDA9
:1031A000081A8DED0A0AB0EE410AFFF74BF99DEDC2
:1031B0000A1A21EE000AB0EE002A80EE020A1198E7
:1031C00090ED0B2A8DED090AB0EE420AFFF73AF9AD
:1031D0009DED091A31EE000A119890ED0C1A90ED50
:1031E000012A90ED023A90ED084A90ED0B5A23EE39
:1031F000011A90ED0D3A22EE032A32EE411A21EE29
:10320000041A21EE051A30EE010AFFF7D5F91198DC
:1032100080ED200A90ED010A90ED021A90ED082A47
:1032200090ED0B3A33EE033A90ED0D4A23EE044A4B
:1032300020EE020A34EE000A90ED0C4A23EE043A26
:1032400021EE021A33EE411A8DED1F0A8DED1E1A82
:103250009DED1F0ADDED1E0A05F024FA9FED0B1A05
:1032600031EE400A119880ED1E0A90ED1E0AB5EE6F
:10327000400AF1EE10FA19DA0EE000BF00206EC528
:1032800000206E45B8860FC1B8860F41DB0FC93FDD
:10329000DB0FC94033336542119890ED1E0A1FEDD4
:1032A000041A30EE010A80ED1E0AFFE7119890ED36
:1032B0001E0A1FED081A20EE010A80ED1E0A90ED8D
:1032C000050AFFF7BFF8119890ED081A8DED080A6E
:1032D000B0EE410AFFF7B6F89DED081A21EE000A9C
:1032E000B0EE002A80EE020A119890ED0B2A8DEDC7
:1032F000070AB0EE420AFFF7A5F89DED071A31EE76
:10330000000A119890ED0C1A90ED012A90ED023A06
:1033100090ED084A90ED0B5A23EE011A90ED0D3A0C
:1033200022EE032A31EE421A21EE041A21EE051A8A
:1033300030EE010AFFF740F9119880ED180A90ED80
:10334000010A90ED021A90ED082A90ED0B3A33EE47
:10335000033A90ED0D4A23EE044A20EE020A34EEC1
:10336000400A90ED0C4A23EE043A21EE021A33EEA5
:10337000011A8DED210A8DED201A9DED210ADDED5A
:10338000200A05F08FF91FED3F1A31EE400A11981F
:1033900080ED160A90ED160AB5EE400AF1EE10FA2D
:1033A0000ADAFFE7119890ED160A1FED471A30EE82
:1033B000010A80ED160AFFE7119890ED160A1FED3D
:1033C0004B1A20EE010A80ED160A90ED050AFFF770
:1033D00039F8119890ED081A8DED060AB0EE410A01
:1033E000FFF730F89DED061A21EE000AB0EE002A34
:1033F00080EE020A119890ED0B2A8DED050AB0EED1
:10340000420AFFF71FF89DED051A31EE000A1198E8
:1034100090ED0C1A90ED012A90ED023A90ED084AD9
:1034200090ED0B5A23EE411A90ED0D3A22EE032A4D
:1034300031EE421A21EE041A21EE051A30EE010A8D
:10344000FFF7BAF8119880ED240A90ED010A90ED8B
:10345000021A90ED082A90ED0B3A33EE033A90ED04
:103460000D4A23EE044A20EE020A34EE400A90EDA3
:103470000C4A23EE043A21EE021A33EE411A8DED86
:10348000230A8DED221A9DED230ADDED220A05F0B7
:1034900009F91FED821A31EE400A119880ED220AD7
:1034A00090ED220AB5EE400AF1EE10FA0ADAFFE7D3
:1034B000119890ED220A9FEDDD1A30EE010A80EDA1
:1034C000220AFFE7119890ED220A9FEDD91A20EE0B
:1034D000010A80ED220AFFE7119890ED160A90ED9F
:1034E000191A30EE410AB5EE400AF1EE10FA0ADD83
:1034F000FFE7119890ED160A90ED191A30EE410A87
:103500008DED040A09E0119890ED160A90ED191A54
:1035100031EE400A8DED040AFFE79DED040A9FEDB0
:10352000C51AB4EE410AF1EE10FA2CDDFFE711984E
:1035300090ED160A90ED191AB4EE410AF1EE10FA68
:103540000ADDFFE7119890ED160A9FEDBC1A30EEE8
:10355000010A80ED160A15E0119890ED160A90ED1B
:10356000191AB4EE410AF1EE10FA0ADAFFE71198DF
:1035700090ED160A9FEDB01A30EE010A80ED160AA2
:10358000FFE7FFE7FFE7119890ED1A0A90ED1D1A8B
:1035900030EE410AB5EE400AF1EE10FA0ADDFFE71F
:1035A000119890ED1A0A90ED1D1A30EE410A8DED3A
:1035B000030A09E0119890ED1A0A90ED1D1A31EEF8
:1035C000400A8DED030AFFE79DED030A9FED991A6E
:1035D000B4EE410AF1EE10FA2CDDFFE7119890ED00
:1035E0001A0A90ED1D1AB4EE410AF1EE10FA0ADD46
:1035F000FFE7119890ED1A0A9FED901A30EE010A3C
:1036000080ED1A0A15E0119890ED1A0A90ED1D1A36
:10361000B4EE410AF1EE10FA0ADAFFE7119890EDE4
:103620001A0A9FED851A30EE010A80ED1A0AFFE7AB
:10363000FFE7FFE7119890ED1E0A90ED211A30EE9A
:10364000410AB5EE400AF1EE10FA0ADDFFE71198E3
:1036500090ED1E0A90ED211A30EE410A8DED020A1E
:1036600009E0119890ED1E0A90ED211A31EE400A02
:103670008DED020AFFE79DED020A9FED6E1AB4EE92
:10368000410AF1EE10FA2CDDFFE7119890ED1E0AC9
:1036900090ED211AB4EE410AF1EE10FA0ADDFFE7CF
:1036A000119890ED1E0A9FED651A30EE010A80ED2B
:1036B0001E0A15E0119890ED1E0A90ED211AB4EE45
:1036C000410AF1EE10FA0ADAFFE7119890ED1E0AAE
:1036D0009FED591A30EE010A80ED1E0AFFE7FFE761
:1036E000FFE7119890ED220A90ED251A30EE410A7D
:1036F000B5EE400AF1EE10FA0ADDFFE7119890ED01
:10370000220A90ED251A30EE410A8DED010A09E0FA
:10371000119890ED220A90ED251A31EE400A8DEDB8
:10372000010AFFE79DED010A9FED421AB4EE410A3E
:10373000F1EE10FA2CDDFFE7119890ED220A90EDE2
:10374000251AB4EE410AF1EE10FA0ADDFFE71198EE
:1037500090ED220A9FED391A30EE010A80ED220A1F
:1037600015E0119890ED220A90ED251AB4EE410A69
:10377000F1EE10FA0ADAFFE7119890ED220A9FEDB8
:103780002E1A30EE010A80ED220AFFE7FFE7FFE77D
:10379000119890ED000A90ED1C1AB1EE411A81EEDD
:1037A000000A9FED271A20EE010A9FED262A80EEDF
:1037B000020A80ED1B0A90ED000A90ED203AB1EE6E
:1037C000433A83EE000A20EE010A80EE020A80ED01
:1037D0001F0A90ED000A90ED183A83EE000A20EEE1
:1037E000010A80EE020A80ED170A90ED000A90EDC2
:1037F000243A83EE000A20EE010A80EE020A80EDF0
:10380000230A816D8164816EC164816F0165D0F886
:1038100088104165C16D8163C16EC163C16F016470
:10382000D0F88C10416424B080BD00BFDB0FC940CC
:1038300033336542000034430000B4430000B4C396
:10384000000070422549923D80B584B003900398F2
:1038500048F20001C4F2A83181600021C4F29D3118
:1038600041600021C160016148F20001C4F2A6314B
:1038700001609FED0C0A0290FEF7E4FD9FED0A1A2D
:103880008DED010AB0EE410AFEF7DCFD9DED011A57
:1038900031EE000AFEF790FE029880ED050A04B0B2
:1038A00080BD00BF0080A84300009D4380B586B066
:1038B0000B4605908DF81310039205989DF8131090
:1038C00001EB410140F26062C2F2000202EB4111E1
:1038D000DDF80CC0DCF800C00CEB4C0C01EB8C01EB
:1038E0004EF2F47CCFF6FF7C51F80C10A031016051
:1038F0009DF8131001EB410102EB4111039A12688C
:1039000002EB420201EB820151F80C1001900846D3
:10391000009301F087F98DF80B009DF80B00042847
:103920000ED0FFE79DF80B00032809D0FFE70398AE
:10393000C17A007B40EA012001990A689084FFE780
:103940000398C17A007B40EA012001990A6810803F
:103950000868B0F90020C261086800228260086827
:10396000C260086842630868426106B080BD00001A
:1039700070B586B0DDF828C09E4614460D46064652
:10398000CDF810C003930292019100900098B0F519
:10399000007F09D9FFE70098B0F5027F04D8FFE760
:1039A00001208DF8170003E000208DF81700FFE7D5
:1039B0009DF8170006B070BD70B58CB00B460B902B
:1039C0008DF82B1009920B9809990A68D1F804C058
:1039D000D1F808E0CC68096908910794CDF818E09F
:1039E000CDF814C004920499059ADDF818C0DDF8EA
:1039F0001CE0089C6D462C60029008461146624609
:103A000001937346FFF7B4FF002801D1FFE7B2E14D
:103A10009DF82B0000EB400040F26061C2F2000113
:103A200001EB40100999096801EB410100EB8100AD
:103A30004EF2F871CFF6FF71405C002801D1FFE72C
:103A400099E19DF82B0000EB400040F26061C2F26A
:103A5000000101EB40100999096801EB410100EBFD
:103A600081004EF2F471CFF6FF714058A03000286B
:103A700019D0FFE79DF82B0000EB400040F2606199
:103A8000C2F2000101EB40100999096801EB410104
:103A900000EB81004EF2F471CFF6FF714058A03078
:103AA00002990860FFE702980168CA8C0132CA8453
:103AB00091B2022907DCFFE79DF82B10099A0298C2
:103AC000FFF7F4FE57E1029801686422CA849DF86A
:103AD0002B1001EB410140F26062C2F2000202EBE6
:103AE0004111099A126802EB420201EB82014EF287
:103AF000F472CFF6FF72885801F094F88DF80F0039
:103B00009DF80F00032815D1FFE70998C17A007BC3
:103B100040EA012002990A6810800998427B807B64
:103B200040EA022000B20A68D0620998407C0A6824
:103B3000508530E09DF80F0004280FD0FFE79DF876
:103B40000F0000280AD0FFE79DF80F00012805D0DC
:103B5000FFE79DF80F0002281CD1FFE70998C17A02
:103B6000007B40EA012002990A6810800998427B94
:103B7000807B40EA02200A6850800998C27B007C62
:103B800040EA022000B20A68D0620998407C0A68C4
:103B90005085FFE7FFE7029801680A888B8CD21AEC
:103BA0004A830168B1F91A10B1F5805F07DDFFE7BC
:103BB000029801684A8BA2F500524A830FE00298EE
:103BC0000168B1F91A1011F5805F07DAFFE7029872
:103BD00001684A8B02F500524A83FFE7FFE702982B
:103BE0000168B1F91820B1F91A10891AB1F5805F8E
:103BF00006DDFFE7029801688A68013A8A6011E0F1
:103C000002980168B1F91820B1F91A10891A11F552
:103C1000805F06DAFFE7029801688A6801328A60ED
:103C2000FFE7FFE7029801688A68B1F91A3003EBF1
:103C300042324A61016891ED050AB8EEC00A9FED73
:103C40004F1A20EE010ABDEEC00A81ED030A016899
:103C500091ED050AB8EEC00A20EE010A81ED040AD2
:103C60009DF80F10032907D1FFE7029801684A6900
:103C70000B6AD21A4A80FFE79DF80F0004280FD084
:103C8000FFE79DF80F0000280AD0FFE79DF80F001E
:103C9000012805D0FFE79DF80F0002280FD1FFE7AC
:103CA00002980168B1F9022000EE102AB8EEC00AAD
:103CB000B1EE081A20EE010A81ED010AFFE7029831
:103CC0000168B1F902204B6B1A444A630168B1F9EB
:103CD0000020CA6101684A690A6201684A8B0A8346
:103CE000016800220A85016881F830209DF82B10B8
:103CF00001EB410140F26062C2F2000202EB4111AD
:103D0000099A126802EB420201EB82014EF2F47250
:103D1000CFF6FF72895802681368D2F804C0D2F84F
:103D200008E0D46815695669C1F8B460C1F8B050AC
:103D3000C1F8AC40C1F8A8E0C1F8A4C0C1F8A030F7
:103D40009369D2F81CC0D2F820E0546A956AD66A0A
:103D5000C1F8CC60C1F8C850C1F8C440C1F8C0E097
:103D6000C1F8BCC0C1F8B830136B526BC1F8D42095
:103D7000C1F8D030FFE70CB070BD00BF0000343D8B
:103D800080B586B00590059801680122029008462A
:103D900011460192FDF71EFD0298018903910199D8
:103DA0008DF8101000228DF8122003228DF81120BA
:103DB00002228DF81320406803A9FDF765FB0298E5
:103DC00001894268118306B080BD000083B00A46B5
:103DD00002908DF8071002989DF8071000290090B6
:103DE00005D1FFE7009801894268118304E000983B
:103DF000018942685183FFE703B0704783B00A46E8
:103E000002908DF8071002989DF807100029009085
:103E100004D1FFE701208DF80700FFE79DF80700B8
:103E200040F2C811C2F200010988884229D0FFE798
:103E300040F21000C2F2000000889DF8071001391E
:103E400048F21F52C5F2EB12A0FB0202D3085943FD
:103E500001EB121140F2CA12C2F2000211809DF869
:103E6000071040F2C812C2F20002118040F2C611DF
:103E7000C2F2000100220A7000990A894B681A8375
:103E8000FFE740F2C610C2F20000007800284ED1D1
:103E9000FFE740F2CA10C2F20000008840F21001B1
:103EA000C2F20001098848F21F52C5F2EB12A1FBD1
:103EB00002121209B0FBF2F303FB1200002807D133
:103EC000FFE7009801894268536959405161FFE753
:103ED00040F2CA10C2F20000008800281ED1FFE79D
:103EE00040F2C610C2F200000121017040F2100041
:103EF000C2F2000000889DF80710013948F21F52F5
:103F0000C5F2EB12A0FB0202D308594301EB1211D8
:103F100040F2CA12C2F20002118007E040F2CA1059
:103F2000C2F20000018801390180FFE7FFE740F29B
:103F3000C610C2F200000078012808D1FFE740F265
:103F4000CC10C2F20000018801310180FFE740F28D
:103F5000CC10C2F2000000881E2810D1FFE740F20A
:103F6000C610C2F200000021017000980289436867
:103F70001A8340F2CC12C2F200021180FFE703B0B4
:103F80007047000084B09C46039002910192ADF806
:103F9000023003980299016001994160BDF8021056
:103FA000018104B07047000080B582B00190019893
:103FB00000210161416181614162303000F06EFA9F
:103FC00002B080BD80B58EB00C908DED0A0B8DEDEA
:103FD000081B079106928DED052A0C98079904900D
:103FE00000F0D2F9002803D1FFE700200D908CE10A
:103FF000079804998A6C904212D0FFE707980499B9
:104000000864886A079A02EB420200EBC200C863A8
:10401000079888640846FFF7C7FF00200D9074E1F9
:104020000698002805D1FFE7049800F124010691C5
:10403000FFE79DED0A0B049880ED000B9DED080B4A
:1040400080ED020B90ED000B90ED021B51EC100B7C
:1040500053EC112BFCF799F941EC100B51EC100BC0
:10406000FCF75CFA049908629DED052AB5EE402A3A
:10407000F1EE10FA40F08A80FFE70498303000F04B
:104080000DFA8DED050A9DED050A9FEDA21AB4EE1D
:10409000410AF1EE10FA78DDFFE70498FFF784FF9C
:1040A0000498816A079A02EB420201EBC20191ED8A
:1040B000000A90ED081A20EE010A80ED090A816AD3
:1040C000079A02EB420201EBC201097D012908D1E6
:1040D000FFE7049890ED090AB1EE400A80ED090A65
:1040E000FFE7049890ED090A816A079A02EB420201
:1040F00001EBC20191ED041AB1EE411AB4EE410A8E
:10410000F1EE10FA0EDAFFE70498816A079A02EBE3
:10411000420201EBC20191ED040AB1EE400A8DEDBD
:10412000030A27E0049890ED090A816A079A02EBD6
:10413000420201EBC20191ED041AB4EE410AF1EE24
:1041400010FA0CDDFFE70498816A079A02EB42023D
:1041500001EBC20191ED040A8DED020A05E004981D
:1041600090ED090A8DED020AFFE79DED020A8DED43
:10417000030AFFE79DED030A049880ED090A416AEE
:10418000069A1160416A0D91BFE0FFE7049890ED37
:10419000050A90ED081A9DED052A21EE021A30EE6F
:1041A000010A80ED050A9DED050AB5EE400AF1EE23
:1041B00010FA10D0FFE7049890ED040A90ED081A69
:1041C00031EE400A9DED051A80EE010A80ED060AE7
:1041D000016A0161FFE70498816A079A02EB4202D3
:1041E00001EBC20191ED010AB5EE400AF1EE10FAC1
:1041F00004D1FFE7002004994861FFE70498816A31
:10420000079A02EB420201EBC20190ED050A90ED24
:10421000061A90ED082A91ED003A91ED014A91EDD0
:10422000025A23EE022A24EE000A32EE000A25EE9C
:10423000011A30EE010A80ED090A816A079A02EB41
:10424000420201EBC201097D012908D1FFE7049870
:1042500090ED090AB1EE400A80ED090AFFE70498E3
:104260008169C16190ED090A816A079A02EB4202F5
:1042700001EBC20191ED041AB1EE411AB4EE410A0C
:10428000F1EE10FA0EDAFFE70498816A079A02EB62
:10429000420201EBC20191ED040AB1EE400A8DED3C
:1042A000010A27E0049890ED090A816A079A02EB57
:1042B000420201EBC20191ED041AB4EE410AF1EEA3
:1042C00010FA0CDDFFE70498816A079A02EB4202BC
:1042D00001EBC20191ED040A8DED000A05E004989E
:1042E00090ED090A8DED000AFFE79DED000A8DEDC6
:1042F000010AFFE79DED010A049880ED090A416A71
:10430000069A1160416A0D91FFE79DED0D0A0EB00E
:1043100080BD00BFCDCCCC3D80B58CB00A908DED7A
:10432000080B079106928DED051A0A9807990490DB
:1043300000F02AF8002803D1FFE700200B901EE0D0
:104340009DED080B0498C16A079A01EB02108DEDF0
:10435000020BFEF771FC0799069A9DED052A049859
:104360009DED021B8DED000BB0EE410AF0EE610AEF
:104370009DED001BFFF726FE8DED0B0AFFE79DED7F
:104380000B0A0CB080BD000080B584B00290019192
:1043900002980199426C9142009014DCFFE700986A
:1043A000C16A00290FD0FFE70098816A00290AD06E
:1043B000FFE70098C16A019A01EB0210FEF74CFD7D
:1043C000002804D0FFE700208DF80F0016E00098C9
:1043D000816A019A02EB420201EBC20191ED040AEB
:1043E000B5EE400AF1EE10FA04D1FFE700208DF897
:1043F0000F0003E001208DF80F00FFE79DF80F008C
:1044000004B080BD80B58AB00890079108980990E3
:1044100000218162C16200F130010690084600F07F
:104420006FF80798069948644FF0FF308864079842
:1044300001282FDBFFE7079820F07041411A18BFD1
:1044400001214FEA0012002918BF4FF0FF320590FA
:10445000104601F03FF905990029049016D0FFE7B6
:104460000498059900EB011203920290FFE702986D
:104470000190FEF7B7FB019901F110021346DDF838
:104480000CC0624500900293F1D1FFE704980699B1
:10449000C862FFE709980AB080BD000080B584B00B
:1044A00002900298016841600190FDF7F3FE00EE72
:1044B000100AB8EE400A9FED111A80EE010A019829
:1044C00080ED000A90ED000A90ED011A30EE410AED
:1044D00080ED020A90ED010AB5EE400AF1EE10FA05
:1044E00003D1FFE70020039003E001988168039166
:1044F000FFE79DED030A04B080BD00BF00247449AE
:1045000080B582B001900198002101604160816016
:104510000090FFF7C3FF009802B080BD84B0029006
:1045200001910092019846F20041C4F200018842D4
:104530000CD0FFE7019846F60001C4F20001884262
:1045400004D0FFE700208DF80F0011E00098B0F5CF
:10455000007F05D9FFE70098B0F5027F04D9FFE797
:1045600000208DF80F0003E001208DF80F00FFE719
:104570009DF80F0004B0704780B588B005AA0B46BF
:10458000069082ED000A8DF81310069890F810112D
:104590000029039202905FD0FFE7039890ED000A94
:1045A000029991F8D82040F21C03C2F2000333F8BC
:1045B0001220524201EE102AB8EEC11AB4EE410A9E
:1045C000F1EE10FA11DAFFE7029890F8D81040F2F5
:1045D0001C02C2F2000232F81110494200EE101A19
:1045E000B8EEC00A8DED010A30E0039890ED000AA4
:1045F000029991F8D82040F21C03C2F2000333F86C
:10460000122001EE102AB8EEC11AB4EE410AF1EE02
:1046100010FA10DDFFE7029890F8D81040F21C0263
:10462000C2F2000232F8111000EE101AB8EEC00A01
:104630008DED000A05E0039890ED000A8DED000A6B
:10464000FFE79DED000A8DED010AFFE79DED010AF0
:10465000039880ED000AFFE7029890F840110129C5
:1046600010D1FFE70298B0F9CA1000F00DF90298D6
:1046700090ED3C0A039991ED001A21EE000A81EDBC
:10468000000AFFE7029890F8431101290DD1FFE7D6
:104690000298D0F8F41091ED000A039991ED001AF8
:1046A00021EE000A81ED000AFFE79DF813000028C3
:1046B00040D0FFE7029890F8411100293AD0FFE777
:1046C000029890F8101100290FD1FFE70298D0F856
:1046D0004811002908D0FFE70298D0F84811039A42
:1046E00092ED000A8847FFE723E0029890F8101146
:1046F000002906D0FFE7029890F8D010002908D1D1
:10470000FFE740F20C30C2F200000078002808D029
:10471000FFE79FED0C0A029800F072F80020079066
:104720000BE0039890ED000A029800F069F8FFE7AB
:10473000FFE7FFE705980790FFE7039890ED020A6F
:1047400008B080BD0000000080B588B004AB94467E
:104750008E46069083ED000B8DF80F108DF80E201D
:10476000069890F8101100290293019016D0FFE7E7
:10477000019890F8D010002910D0FFE70198503030
:10478000FFF712FC9DF80E209FED1C0A00210198F6
:1047900000F050FA029880ED030A29E0019890F8A1
:1047A000E010013180F8E010C9B2022913DBFFE705
:1047B0000020019981F8E00001F15002029B93ED85
:1047C000000B9DF90F109FED0D1A00901046009AF6
:1047D000FFF7A2FDFFE7019890ED1D0A9DF90F106C
:1047E0009DF80E2000F026FA029880ED030AFFE7FC
:1047F000029890ED030A08B080BD00BF00000000E1
:1048000082B001908DED000A0198009990F8D920AE
:1048100040F28413C2F2000303EB4212D0F8DC3002
:1048200002EB83024FF2FC73CFF6FF73D15090F886
:10483000D91001EB410140F26062C2F2000202EBCA
:104840004111D0F8DC3003EB430301EB83014EF25E
:10485000FA73CFF6FF734FF0000C21F803C090F805
:10486000D91001EB410102EB4111D0F8DC0000EB63
:10487000400001EB80004EF2FC71CFF6FF7100F8B2
:1048800001C002B07047000085B00A460490ADF840
:104890000E100498BDF90E1000EE101AB8EEC00A02
:1048A00090ED421A90ED432A31EE400A32EE411A61
:1048B00080EE010AB7EE001A30EE010A80ED3C0AE4
:1048C00090ED3C0AB5EE400AF1EE10FA029005DADE
:1048D000FFE79FED130A8DED010A1AE0029890EDB3
:1048E0003C0AB7EE001AB4EE410AF1EE10FA05DD0B
:1048F000FFE7B7EE000A8DED000A05E0029890EDA3
:104900003C0A8DED000AFFE79DED000A8DED010ADE
:10491000FFE79DED010A029880ED3C0A05B0704763
:104920000000000082B0019000910198012180F800
:1049300043110099C0F8F41002B0704781B00090A4
:10494000009890F8D80040F23601C2F2000131F828
:10495000100001B07047000080B590B00F9040F299
:104960000C30C2F200000078002836D0FFE70020AB
:104970000E900D900C900B900A9009900890079063
:104980000690FFE70698012826DCFFE70020059047
:10499000FFE7059801281ADCFFE7069846F60001B4
:1049A000C4F20001002804BF46F20041C4F2000135
:1049B000059840F2FF12002808BF4FF4007207A8C4
:1049C000FDF7B8FCFFE7059801300590E1E7FFE748
:1049D000069801300690D5E714E100200490FFE727
:1049E0000498012800F30E81FFE700200390FFE701
:1049F0000398012800F30181FFE700208DF80B00E8
:104A00000190FFE70198032800F3CB80FFE70498AB
:104A100000EB400040F26061C2F2000101EB401087
:104A20000399019A02EB810101EB410150F8210049
:104A3000002801D1FFE7B0E0049800EB400040F20D
:104A40006061C2F2000101EB40100399019A02EB90
:104A5000810101EB410150F8210090F84501002847
:104A600001D1FFE799E001208DF80B00049800EBDD
:104A7000400040F26061C2F2000101EB4010039976
:104A8000019A02EB810101EB410150F82100B0F8DD
:104A9000C800C92823DBFFE7049800EB400040F280
:104AA0006061C2F2000101EB40100399019A02EB30
:104AB000810101EB410150F82100012180F8D01063
:104AC000049840F28411C2F2000101EB40100399F6
:104AD000019A02EB8101002240F821205DE0049858
:104AE00000EB400040F26061C2F2000101EB4010B7
:104AF000039A019B03EB820202EB420250F8220070
:104B0000B0F8C8200132A0F8C820049800EB40009B
:104B100001EB40100399019A02EB810101EB410185
:104B200000EB8100C088652822DBFFE7049800EBDA
:104B3000400040F26061C2F2000101EB40100399B5
:104B4000019A02EB810101EB410100EB810001219F
:104B50000172049840F28411C2F2000101EB40108E
:104B60000399019A02EB8101002240F8212014E010
:104B7000049800EB400040F26061C2F2000101EBDA
:104B800040100399019A02EB810101EB410100EB16
:104B90008100C1880131C180FFE701980130019097
:104BA00030E79DF80B00C007002801D1FFE720E0A7
:104BB000049840F28411C2F2000101EB4011039A03
:104BC00001EB021146F60003C4F20003002804BF03
:104BD00046F20043C4F2000340F2FF10002A08BF6F
:104BE0004FF40070009008461946009AFDF7A2FBAA
:104BF000FFE7039801300390FAE6FFE704980130DD
:104C00000490EDE610B080BD81B00090009890F85F
:104C1000D80040F21C01C2F2000131F8100001B0CE
:104C20007047000081B00090009890F8D80001B063
:104C30007047000080B588B005AB94468E4606905C
:104C400083ED000A8DF813108DF81220069890F865
:104C5000101100290393029014D0FFE7029890F8F6
:104C6000D01000290ED0FFE70298FFF79DF99DF8BC
:104C700012109FED150A0298FFF77EFC039880ED55
:104C8000020A1BE00598FBF736FC41EC100B9DF97E
:104C9000131000229FED0C1A0298FFF73DFB0298BB
:104CA00090ED091A9DF812108DED010AB0EE410A3F
:104CB000FFF762FC039880ED020AFFE7039890ED8E
:104CC000020A08B080BD00BF0000000080B588B0B7
:104CD0000790079890F8D91046F60002C4F2000237
:104CE000002904BF46F20042C4F20002D0F8DC10F2
:104CF000069005911146059AFFF710FC002800F078
:104D00008180FFE70120069981F8100191F8D90010
:104D100040F27412C2F2000202EBC000D1F8DC20B3
:104D200010446FF40072805C00282BD0FFE70698D7
:104D300090F8D91040F27412C2F2000202EBC101E5
:104D4000D0F8DC2011446FF40072895C012953D142
:104D5000FFE7069890F8D91001EB410140F260623C
:104D6000C2F2000202EB4111D0F8DC2002EB420259
:104D700001EB82014EF2F472CFF6FF728958814244
:104D80003AD1FFE70120069981F8440140F26D1005
:104D9000C2F20000007800282DD1FFE740F26D102C
:104DA000C2F200000121017044F65910C0F6000063
:104DB0006A46106048F62660C0F60000082204919A
:104DC0001146049B03921A4603F058FB40F27011FF
:104DD000C2F2000108600868029003F0B5F8694665
:104DE000039A0A6000230299019008460499019AE7
:104DF00003F09EFBFFE704E00020069981F84401E0
:104E0000FFE707E00020069981F81001012081F8F2
:104E10004401FFE7069890F8441180F8411190F89A
:104E2000441180F8451190F8101100294ED0FFE789
:104E3000069890F8441190F8D92040F27413C2F209
:104E4000000303EBC202D0F8DC301A446FF40073A5
:104E5000D15490F8D91001EB410140F26062C2F2E6
:104E6000000202EB4111D0F8DC3003EB430301EB0D
:104E700083014EF2F473CFF6FF73C85090F84411DB
:104E800090F8D93003EB430302EB4313D0F8DCC0B6
:104E90000CEB4C0C03EB8C034EF2F87CCFF6FF7C52
:104EA00003F80C1090F8441190F8D93003EB430349
:104EB00002EB4312D0F8DC3003EB430302EB830236
:104EC0004EF2F973CFF6FF73D154FFE708B080BDFF
:104ED00080B588B08C4606908DF817100492039325
:104EE00006980790012102900191CDF800C0FFF7CC
:104EF00089FA029850300199FFF784FA9DF817005B
:104F0000029981F8D8000398C1F8DC00049846F2B1
:104F10000042C4F20002801A18BF012081F8D900B3
:104F20004FF00000A1F8C4009DF8170040F21C02E9
:104F3000C2F2000232F8100000EE100AB8EE400A89
:104F400081ED3E0A9DF8170040F23602C2F20002DF
:104F500032F8100000EE100AB8EE400A81ED3F0A68
:104F60009DF8170040F22C02C2F2000232F8100045
:104F700000EE100AB8EE400A81ED410A91ED3E0ABA
:104F8000B0EE081A80EE010A81ED400A91ED410A67
:104F90009FED151A20EE010A81ED420A91ED410ABA
:104FA0009FED121A20EE010A81ED430A9DF81700C9
:104FB00032F81000002805D0FFE70120029981F89F
:104FC0004001FFE7029800F1A201C06AFDF72AFE46
:104FD000029800F1B401C06FFDF71AFE0298FFF7C6
:104FE00075FE079808B080BD3333333FCDCC4C3FBE
:104FF00080B58AB009900998019000F0DBF801981B
:1050000000F0BEF9019800F0D9F90198D0F8EC1041
:10501000D0F8F020D0F8F430089307920691D0F839
:10502000CC10D0F8D020D0F8D430D0F8D8C0CDF8FB
:1050300014C00493039202919DED060ADDED070A68
:105040009DED081ADDED021A9DED032ADDED042A1F
:105050009DED053AFDF70AFF019800F003F80AB04C
:1050600080BD000080B58CB00B900B9840F20C31E5
:10507000C2F2000109780029099053D1FFE709988D
:1050800090F8191100294DD1FFE700208DF82B0071
:10509000FFE79DF82B00032843DCFFE79DF82B007A
:1050A000099901EB8002D2F8A82001F1380303EB43
:1050B0008000006908920793FBF71DFA41EC100B82
:1050C00000200121089A06901046069B059119467A
:1050D000059AFFF739FB099800F198019DF82B20FC
:1050E00051F82200099A02F1F803049119468DED56
:1050F000030AFFF717FC9DF82B00049951F82020B4
:10510000079B03EB800090ED000A10460699059A74
:10511000FFF790FDFFE79DF82B0001308DF82B0085
:10512000B7E730E000208DF82A00FFE79DF82A005D
:10513000032827DCFFE79DF82A00099901EB80008E
:10514000D0F8A8009FED110A01228DED020A114648
:105150000192FFF711FA9DF82A00099901EB8000EE
:10516000D0F898009DED021A8DED000AB0EE410ACC
:105170000199FFF701FAFFE79DF82A0001308DF849
:105180002A00D3E7FFE70CB080BD00BF000000009D
:1051900081B00090009801214175C821816101B062
:1051A0007047000081B000900098002101704170AC
:1051B00001B0704783B00290029800218DF807106B
:1051C0000090FFE79DF80700022810DCFFE79DF83C
:1051D0000700009901EB8000D0F80421C0F8EC2012
:1051E000FFE79DF8070001308DF80700EAE7009817
:1051F00090ED440A9FED031A80EE010A80ED3E0A0D
:1052000003B0704700401C4689B006A90790079874
:1052100090ED3B0AB5EE400AF1EE10FA04910390CE
:1052200006DDFFE7039890ED3B0A8DED020A07E0EB
:10523000039890ED3B0AB1EE400A8DED020AFFE7BC
:105240009DED020AB5EE400AF1EE10FA1FDCFFE711
:10525000039890ED3C0AB5EE400AF1EE10FA06DD37
:10526000FFE7039890ED3C0A8DED010A07E00398F3
:1052700090ED3C0AB1EE400A8DED010AFFE79DED8D
:10528000010AB5EE400AF1EE10FA6CDDFFE70020EE
:105290008DF81700FFE79DF81700032836DCFFE7BD
:1052A0009DF81700039901EB8000D0F89800B0F941
:1052B000A20001280BDBFFE79DF81700039901EB23
:1052C0008000D0F89800B0F9A20000900BE09DF8A3
:1052D0001700039901EB8000D0F89800B0F9A20004
:1052E00040420090FFE7009800EE100AB8EEC00AB6
:1052F000049890ED001A31EE000A80ED000AFFE7F5
:105300009DF8170001308DF81700C4E7049890ED60
:10531000000AB2EE041AB4EE410AF1EE10FA19DDF9
:10532000FFE740F2D010C2F20000016801310160D5
:10533000006865280ADBFFE740F2D010C2F20000E7
:105340000021016001208DF8230015E000208DF878
:10535000230011E040F2D010C2F2000000210160F1
:105360008DF8231008E040F2D010C2F200000021B6
:1053700001608DF82310FFE79DF8230009B0704706
:1053800080B584B0039003980090FFF73DFF00992B
:1053900081F8250191F825018DF8040091F8240188
:1053A0008DF8050001A846F20041C4F2000140F268
:1053B0003712FDF725F804B080BD000083B00290DD
:1053C000029800218DF807100090FFE79DF8070074
:1053D00003282FDCFFE79DF80700009901EB80020E
:1053E000D2F8A820B2F9A02001EB4003B3F9C430F1
:1053F000D21A00EE102AB8EEC00A9FED0F1A80EE06
:10540000010A9FED0E1A20EE010A01F1DC0202EB07
:10541000800080ED000A9DF8070052F8202001EB83
:105420008000C0F8CC20FFE79DF8070001308DF820
:105430000700CBE703B0704700F8FF450000B44316
:1054400080B588B007900798182105900846049108
:1054500000F042F90599C1F8B800049800F03CF951
:105460000599C1F8BC00049800F036F90599C1F817
:10547000C00000208DF81B00FFE79DF81B000328EB
:105480004ADCFFE74FF4A87000F026F99DF81B10E6
:1054900001F20123012146F60002C4F2000203904A
:1054A000FFF716FD059800F198019DF81B20039B5E
:1054B00041F8223040F22802C2F200021268D0F80D
:1054C000B8C0CCF800209DF81B2051F822000291B2
:1054D000FFF79AFB00EE100AB8EE400A0598D0F8E4
:1054E000B81081ED040AD0F8B8109DF81B20029B7B
:1054F00053F8222091629DF81B1053F8211001F1FE
:10550000A202C86A1146FDF78DFBFFE79DF81B005C
:1055100001308DF81B00B0E700208DF81A00FFE77E
:105520009DF81A00032800F38D80FFE74FF4A87060
:1055300000F0D2F89DF81A1001F20523042146F676
:105540000002C4F200020190FFF7C2FC059800F1CE
:10555000A8019DF81A20019B41F8223040F2440234
:10556000C2F200021268D0F8BCC0CCF8002040F2B1
:105570004002C2F200021268D0F8BCC0CCF804208D
:105580009DF81A2051F822000091FFF73DFB00EE34
:10559000100AB8EE400A0598D0F8BC1081ED040A54
:1055A00040F24801C2F200010968D0F8C020116041
:1055B0009DF81A10009A52F82100FFF7BFF900EE8B
:1055C000100AB8EE400A0598D0F8C01081ED040A20
:1055D000D0F8BC109DF81A20009B53F8222091624D
:1055E000D0F8C0109DF81A2053F8222091679DF83A
:1055F0001A1053F8211001F1A202C86A1146FDF7F2
:1056000011FB9DF81A00059901EB800202F1DC0103
:10561000009A52F82000C06FFDF7F0FA9DF81A00CA
:1056200040F24C01C2F2000151F82010059A02EB41
:105630004000A0F8C410FFE79DF81A0001308DF873
:105640001A006DE708B080BD80B582B00190019866
:105650000090FEF7F9F8009800F58270FFF798FDCA
:10566000009800F59270FFF79DFD009802B080BD94
:1056700081B000900098B0F8CA120131A0F8CA12A7
:1056800001B0704785B00390039804900021A0F802
:10569000BF1100F2C11100F2C512029001920091F7
:1056A000FFE70098002120F8021B0146019A904272
:1056B0000091F6D1FFE70020029981F8C501C1F8F9
:1056C000C601049805B0704740F2D410C2F2000041
:1056D00000687047AFF3008010B50446002808BF8B
:1056E000012400BF204603F0A3FA002818BF10BD14
:1056F000FFF7EAFF08B18047F4E7002010BD000083
:1057000080B540F2D810C2F20000022140F20042FF
:10571000C4F202024FF48043FEF734FC80BD000067
:1057200080B540F2E410C2F20000FFF78DFF80BDAB
:1057300080B540F21430C2F20000FFF7A3FF80BD35
:1057400080B584B04FF44070FCF704F8FCF744FDDA
:1057500040F26810C2F2000069464860012008600B
:1057600042F22D10C0F6000048F61461C0F60001A8
:1057700064220023039302F0A9FA029001F0E6FCF0
:10578000039804B080BD000080B584B003900291FE
:105790004DF20030C2F200000068009040F2247028
:1057A000C2F200000068043001F0F2F8002812D1C3
:1057B000FFE740F22470C2F200000068C06A0121D5
:1057C00001FA00F04DF20C21C2F200010A6822EA4F
:1057D0000000086000E0FFE703980130002811D1C5
:1057E000FFE7029800280DD0FFE740F22470C2F2D4
:1057F00000000068011D4DF2D820C2F2000001F047
:1058000041F93DE00098039908440190019840F265
:105810002471C2F200010968486001980099884229
:105820000ED2FFE740F23470C2F20000006840F28E
:105830002471C2F200010968043101F0EDF81EE0A4
:1058400040F22C70C2F20000006840F22471C2F2F3
:1058500000010968043101F0DFF801984DF2702170
:10586000C2F200010968884207D2FFE701984DF2B1
:105870007021C2F20001086000E0FFE7FFE7FFE7E8
:1058800004B080BD80B582B0019001F023F94DF2E3
:10589000F810C2F2000001680131016040F224708A
:1058A000C2F200000068002813D1FFE7019840F21F
:1058B0002471C2F2000108604DF2F810C2F200003B
:1058C0000068012803D1FFE700F022FB00E0FFE7BA
:1058D0001DE04DF2CC20C2F200000068002814D177
:1058E000FFE740F22470C2F200000068C06A01992C
:1058F000C96A884207D8FFE7019840F22471C2F2D2
:105900000001086000E0FFE700E0FFE7FFE74DF27D
:105910000820C2F2000001680131016000680199AD
:1059200048640198C06A012101FA00F04DF20C218F
:10593000C2F200010A68104308600198C16A01EBD5
:10594000810140F23C72C2F2000202EB810104309C
:1059500000900846009901F095F801F0E3F84DF247
:10596000CC20C2F200000068002819D0FFE740F206
:105970002470C2F200000068C06A0199C96A8842B6
:105980000CD2FFE74EF60450CEF200004FF08051EB
:105990000160BFF34F8FBFF36F8F00E0FFE700E0C0
:1059A000FFE702B080BD000080B582B001F092F840
:1059B0004DF20430C2F200000068002836D1FFE743
:1059C0004DF21020C2F20000019001F005F84DF2F6
:1059D0002420C2F20000009000F0FEFF40F2287088
:1059E000C2F200000199016040F23870C2F200007A
:1059F000009A026005201021002201F051FD4DF2B5
:105A00000431C2F200010860086800280CD0FFE7EA
:105A10004DF20430C2F20000006848F63C61C0F666
:105A2000000101F055F900E0FFE700E0FFE701F0B9
:105A300079F802B080BD000080B584B0FFE74DF278
:105A4000FC10C2F200000068002835D0FFE701F02A
:105A5000DBFB4DF2EC20C2F200000068B0FA80F0EF
:105A60004009039002F048FC0399002922D1FFE786
:105A700001F030F84DF2EC20C2F20000C068C068BE
:105A800002900298043000F083FF4DF2F811C2F248
:105A900000010A68013A0A604DF2FC11C2F20001ED
:105AA0000A68013A0A60019001F03CF8029800F09F
:105AB0009BF800E0FFE7C2E704B080BD80B584B08A
:105AC000039002910398006C00281AD0FFE7039816
:105AD000C168026C1144C16003984168C068884283
